:020000040800F2
:10000000002800202D090008950700089B0700081C
:10001000A1070008A7070008AD07000800000000BE
:10002000000000000000000000000000B30700080E
:10003000BF07000800000000CB070008D707000832
:100040007509000875090008750900087509000898
:100050007509000875090008750900087509000888
:100060007509000875090008750900087509000878
:100070007509000875090008750900087509000868
:100080007509000875090008750900087509000858
:100090007509000875090008750900087509000848
:1000A0007509000875090008750900087509000838
:1000B000E507000875090008000000007509000840
:1000C0007509000800000000000000007509000824
:1000D0000000000075090008750900080000000014
:1000E000750900087509000875090008000000007E
:1000F0000000000000000000000000000000000000
:0C01000000000000000000005FF808F1A3
:10010C0010B5054C237833B9044B13B10448AFF345
:10011C0000800123237010BD70000020000000003F
:10012C00A42C000808B5034B1BB103490348AFF3DB
:10013C00008008BD0000000074000020A42C000802
:10014C00034613F8012B002AFBD1181A013870470B
:10015C0080B500AF00F00AFC00F016F800F050F883
:10016C0000F0C4F800F098F8054801F079FB64221F
:10017C000021044800F0C8F900F07AF9FCE700BF50
:10018C00040400209108000880B590B000AF07F17E
:10019C00180328220021184602F03CF93B1D0022CE
:1001AC001A605A609A60DA601A610223BB610123FB
:1001BC00BB621023FB6200237B6307F11803184614
:1001CC0000F0F0FE0346002B01D000F0DBF80F230B
:1001DC007B600023BB600023FB6000233B6100239A
:1001EC007B613B1D0021184601F05CF90346002B96
:1001FC0001D000F0C7F800BF4037BD4680BD0000FD
:10020C0080B586B000AF07F1080300221A605A606F
:10021C009A60DA603B4600221A605A601D4B4FF020
:10022C0080421A601B4B41F63F725A60194B0022F8
:10023C009A60184B0922DA60164B00221A61154B92
:10024C0000229A61134801F0BBFA0346002B01D03F
:10025C0000F098F84FF48053BB6007F1080319467F
:10026C000C4801F039FC0346002B01D000F08AF851
:10027C0000233B6000237B603B461946054801F098
:10028C0011FE0346002B01D000F07CF800BF18379C
:10029C00BD4680BD0404002080B500AF114B124A4E
:1002AC001A60104B4FF4E1325A600E4B00229A60E8
:1002BC000C4B0022DA600B4B00221A61094B0C220A
:1002CC005A61084B00229A61064B0022DA610548FC
:1002DC0001F052FE0346002B01D000F053F800BF92
:1002EC0080BD00BFB80300200038014080B586B047
:1002FC0000AF07F1080300221A605A609A60DA60B6
:10030C00184B9B69174A43F004039361154B9B6987
:10031C0003F004037B607B68124B9B69114A43F02A
:10032C00080393610F4B9B6903F008033B603B6828
:10033C0000224FF478710C4800F002FE4FF47873F1
:10034C00BB600123FB6000233B6102237B6107F14F
:10035C0008031946044800F079FC00BF1837BD4665
:10036C0080BD00BF001002400008014080B582B083
:10037C0000AF786000F076FA00F00AF800BF08379A
:10038C00BD4680BD80B400AF72B600BFFEE7000072
:10039C0080B483B000AF0023FB715DE0FA79334980
:1003AC0013469B0013449B000B441B68002B50D03E
:1003BC00FA792E4913469B0013449B000B440433DB
:1003CC001B68002B32D1FA79284913469B00134441
:1003DC009B000B440C331B78FA790133D8B22349B8
:1003EC0013469B0013449B000B440C3302461A70BB
:1003FC00FA791E4913469B0013449B000B440833A7
:10040C001B68002B25D0F979FA7918480B469B000C
:10041C000B449B00034408331968144813469B0093
:10042C0013449B0003440433196012E0FA790F491A
:10043C0013469B0013449B000B4404331B68FA794E
:10044C00591E0A4813469B0013449B000344043373
:10045C001960FB790133FB71FB79272B9ED900BF07
:10046C0000BF0C37BD4680BC704700BF9800002011
:10047C0080B582B000AF0023FB713AE0FA792149D4
:10048C0013469B0013449B000B440C331B78002B2E
:10049C002CD0FA791B4913469B0013449B000B4448
:1004AC001B689847FA79174913469B0013449B0025
:1004BC000B440C331B78FA79013BD8B21149134623
:1004CC009B0013449B000B440C3302461A70FA79C0
:1004DC000C4913469B0013449B000B4408331B68C8
:1004EC00002B03D1FB79184600F05CF8FB79013343
:1004FC00FB71FB79272BC1D900BF00BF0837BD4664
:10050C0080BD00BF9800002080B487B000AFF860B9
:10051C00B9607A600023FB7502E0FB7D0133FB754B
:10052C00FA7D1F4913469B0013449B000B441B6828
:10053C00002B02D0FB7D272BEFD9FB7D282B01D183
:10054C00282327E0FA7D164913469B0013449B0091
:10055C000B44FA681A60FA7D114913469B00134448
:10056C009B000B440433BA681A60FA7D0C4913469D
:10057C009B0013449B000B4408337A681A60FA7D85
:10058C00074913469B0013449B000B440C33002279
:10059C001A70FB7D18461C37BD4680BC704700BFE7
:1005AC009800002080B485B000AF78601D497A684F
:1005BC0013469B0013449B000B441B68002B02D179
:1005CC000023FB7301E00123FB7316497A68134681
:1005DC009B0013449B000B4400221A6011497A685B
:1005EC0013469B0013449B000B44043300221A60F7
:1005FC000C497A6813469B0013449B000B44083348
:10060C0000221A6007497A6813469B0013449B002A
:10061C000B440C3300221A70FB7B18461437BD4672
:10062C0080BC70479800002080B485B000AF154B9B
:10063C009B69144A43F001039361124B9B6903F0CD
:10064C000103BB60BB680F4BDB690E4A43F0805360
:10065C00D3610C4BDB6903F080537B607B680A4BE6
:10066C005B68FB60FB6823F0E063FB60FB6843F0B6
:10067C008063FB60044AFB68536000BF1437BD46BF
:10068C0080BC7047001002400000014080B584B06F
:10069C0000AF78607B681B68B3F1804F13D10C4BB3
:1006AC00DB690B4A43F00103D361094BDB6903F0AF
:1006BC000103FB60FB68002200211C2000F08FFA74
:1006CC001C2000F0A8FA00BF1037BD4680BD00BF4B
:1006DC000010024080B58AB000AF786007F11403B7
:1006EC0000221A605A609A60DA607B681B68224AA2
:1006FC0093423DD1214B9B69204A43F48043936143
:10070C001E4B9B6903F480433B613B691B4B9B690C
:10071C001A4A43F008039361184B9B6903F00803D2
:10072C00FB60FB6840237B610223BB6103233B62BC
:10073C0007F114031946124800F088FA80237B61F4
:10074C000023BB610023FB6107F1140319460C481D
:10075C0000F07CFA0B4B5B687B627B6A43F0E063D6
:10076C007B627B6A43F004037B62064A7B6A5360BC
:10077C0000BF2837BD4680BD003801400010024044
:10078C00000C01400000014080B400AFFEE780B4D3
:10079C0000AFFEE780B400AFFEE780B400AFFEE729
:1007AC0080B400AFFEE780B400AF00BFBD4680BC94
:1007BC00704780B400AF00BFBD4680BC704780B4AA
:1007CC0000AF00BFBD4680BC704780B500AF00F0E5
:1007DC0013F900BF80BD000080B500AF024801F0E6
:1007EC008BF800BF80BD00BF0404002080B586B02C
:1007FC0000AF7860144A154BD31A7B617B693B615F
:10080C00134B1B68002B02D1114B124A1A60104B70
:10081C001A687B6813443A699A4207D201F0D0FDFA
:10082C0003460C221A604FF0FF3309E0084B1B689B
:10083C00FB60074B1A687B681344054A1360FB681E
:10084C0018461837BD4680BD002800200004000063
:10085C008C0000206804002080B400AF00BFBD46AF
:10086C0080BC704780B400AF054B1B680A33044A48
:10087C001360034B1B681846BD4680BC704700BF15
:10088C000004002080B5A0B000AF00F0C7F803460C
:10089C001C4AA2FB0323DA0813469B0013445B009B
:1008AC001A46194B1A60184B1A6807F1400317497E
:1008BC00184601F0B7FD164B1A683B461549184609
:1008CC0001F0B0FD07F140031846FFF739FC034671
:1008DC009AB207F1400164230F4801F09DFB3B469F
:1008EC001846FFF72DFC03469AB2394664230A4892
:1008FC0001F092FB2021094800F03AFB00BF803741
:10090C00BD4680BDCDCCCCCC4C040020BC2C00080A
:10091C0000040020DC2C0008B80300200008014073
:10092C00FFF79AFF0B480C490C4A002302E0D458FD
:10093C00C4500433C4188C42F9D3094A094C00231F
:10094C0001E013600432A242FBD301F03FFDFFF73C
:10095C00FFFB704700000020700000207C2D000879
:10096C007000002064040020FEE7000080B500AF9A
:10097C00084B1B68074A43F010031360032000F078
:10098C0023F90F2000F008F8FFF74EFE002318465D
:10099C0080BD00BF0020024080B582B000AF7860FF
:1009AC00124B1A68124B1B7819464FF47A73B3FB2F
:1009BC00F1F3B2FBF3F3184600F03BF90346002BBE
:1009CC0001D001230EE07B680F2B0AD80022796836
:1009DC004FF0FF3000F003F9064A7B6813600023E8
:1009EC0000E0012318460837BD4680BD00000020FA
:1009FC00080000200400002080B400AF054B1B78D9
:100A0C001A46054B1B681344034A136000BFBD46CE
:100A1C0080BC7047080000205004002080B400AF58
:100A2C00024B1B681846BD4680BC70475004002022
:100A3C0080B485B000AF78607B6803F00703FB607F
:100A4C000C4BDB68BB60BA684FF6FF031340BB600E
:100A5C00FB681A02BB68134343F0BF6343F40033D3
:100A6C00BB60044ABB68D36000BF1437BD4680BC72
:100A7C00704700BF00ED00E080B400AF044BDB68B2
:100A8C001B0A03F007031846BD4680BC704700BF25
:100A9C0000ED00E080B483B000AF0346FB7197F922
:100AAC000730002B0BDBFB7903F01F02064997F98B
:100ABC0007305B09012000FA02F241F8232000BF45
:100ACC000C37BD4680BC704700E100E080B483B0B9
:100ADC0000AF03463960FB7197F90730002B0ADB36
:100AEC003B68DAB20C4997F907301201D2B20B44C9
:100AFC0083F800230AE03B68DAB20849FB7903F07B
:100B0C000F03043B1201D2B20B441A7600BF0C3710
:100B1C00BD4680BC704700BF00E100E000ED00E086
:100B2C0080B489B000AFF860B9607A60FB6803F0FC
:100B3C000703FB61FB69C3F10703042B28BF0423E4
:100B4C00BB61FB690433062B02D9FB69033B00E054
:100B5C0000237B614FF0FF32BB6902FA03F3DA43E7
:100B6C00BB681A407B699A404FF0FF317B6901FAF0
:100B7C0003F3D9437B680B40134318462437BD4617
:100B8C0080BC704780B582B000AF78607B68013B59
:100B9C00B3F1807F01D301230FE00A4A7B68013B4C
:100BAC0053600F214FF0FF30FFF790FF054B0022F1
:100BBC009A60044B07221A60002318460837BD467A
:100BCC0080BD00BF10E000E080B582B000AF78605F
:100BDC007868FFF72DFF00BF0837BD4680BD80B594
:100BEC0086B000AF0346B9607A60FB7300237B616B
:100BFC00FFF742FF78617A68B9687869FFF790FF70
:100C0C00024697F90F3011461846FFF75FFF00BFF9
:100C1C001837BD4680BD80B582B000AF0346FB716E
:100C2C0097F907301846FFF735FF00BF0837BD4668
:100C3C0080BD80B582B000AF78607868FFF7A2FF06
:100C4C00034618460837BD4680BD000080B48BB003
:100C5C0000AF7860396000237B6200233B6248E17F
:100C6C0001227B6A02FA03F3FB613B681B68FA6999
:100C7C001340BB61BA69FB699A4240F037813B680B
:100C8C005B68A34A93425ED0A14A934275D8A14AAD
:100C9C00934258D09F4A93426FD89F4A934252D066
:100CAC009D4A934269D89D4A93424CD09B4A9342A9
:100CBC0063D89B4A934246D0994A93425DD8122BF3
:100CCC002AD8122B59D801A252F823F0530D000840
:100CDC002D0D00083F0D0008810D0008870D000840
:100CEC00870D0008870D0008870D0008870D000888
:100CFC00870D0008870D0008870D0008870D000878
:100D0C00870D0008870D0008870D0008870D000867
:100D1C00350D0008490D0008824A934213D02CE08F
:100D2C003B68DB683B6229E03B68DB6804333B6271
:100D3C0024E03B68DB6808333B621FE03B68DB6800
:100D4C000C333B621AE03B689B68002B02D10423F6
:100D5C003B6213E03B689B68012B05D108233B6287
:100D6C007B68FA691A6109E008233B627B68FA69BF
:100D7C005A6103E000233B6200E000BFBB69FF2B1C
:100D8C0001D87B6801E07B6804337B61BB69FF2B76
:100D9C0002D87B6A9B0002E07B6A083B9B003B61AC
:100DAC007B691A680F213B6901FA03F3DB431A4094
:100DBC00396A3B6901FA03F31A437B691A603B6891
:100DCC005B6803F08053002B00F09080564B9B69BE
:100DDC00554A43F001039361534B9B6903F00103A4
:100DEC00BB60BB68514A7B6A9B08023352F82330C4
:100DFC00FB607B6A03F003039B000F2202FA03F3F0
:100E0C00DB43FA681340FB607B68494A93420DD080
:100E1C007B68484A934207D07B68474A934201D18A
:100E2C00022304E0032302E0012300E000237A6A9A
:100E3C0002F0030292009340FA681343FB603B49B3
:100E4C007B6A9B080233FA6841F823203B685B6895
:100E5C0003F48013002B06D0384B9A683749BB69D2
:100E6C0013438B6006E0354B9A68BB69DB4333490F
:100E7C0013408B603B685B6803F40013002B06D0B7
:100E8C002E4BDA682D49BB691343CB6006E02B4B24
:100E9C00DA68BB69DB4329491340CB603B685B686C
:100EAC0003F40033002B06D0244B5A682349BB694A
:100EBC0013434B6006E0214B5A68BB69DB431F4967
:100ECC0013404B603B685B6803F48033002B06D007
:100EDC001A4B1A681949BB6913430B6006E0174B90
:100EEC001A68BB69DB43154913400B607B6A0133FD
:100EFC007B623B681A687B6A22FA03F3002B7FF44F
:100F0C00AFAE00BF00BF2C37BD4680BC704700BFE2
:100F1C0000003210000031100000221000002110DF
:100F2C0000001210000011100010024000000140DF
:100F3C0000080140000C0140001001400004014079
:100F4C0080B483B000AF78600B467B8013467B7017
:100F5C007B78002B03D07A887B681A6103E07B884E
:100F6C001A047B681A6100BF0C37BD4680BC704701
:100F7C0080B485B000AF78600B467B807B68DB6803
:100F8C00FB607A88FB6813401A04FB68D9437B88A2
:100F9C000B401A437B681A6100BF1437BD4680BCF6
:100FAC007047000080B586B000AF78607B68002B7E
:100FBC0001D101236CE27B681B6803F00103002B59
:100FCC0000F08780924B5B6803F00C03042B0CD071
:100FDC008F4B5B6803F00C03082B12D18C4B5B68B6
:100FEC0003F48033B3F5803F0BD1894B1B6803F4BA
:100FFC000033002B6CD07B685B68002B68D101231D
:10100C0046E27B685B68B3F5803F06D1804B1B687A
:10101C007F4A43F4803313602EE07B685B68002BBF
:10102C000CD17B4B1B687A4A23F480331360784BCA
:10103C001B68774A23F4802313601DE07B685B6890
:10104C00B3F5A02F0CD1724B1B68714A43F480236B
:10105C0013606F4B1B686E4A43F4803313600BE0D4
:10106C006B4B1B686A4A23F480331360684B1B6814
:10107C00674A23F4802313607B685B68002B13D0D2
:10108C00FFF7CCFC386108E0FFF7C8FC02463B696F
:10109C00D31A642B01D90323FAE15D4B1B6803F4CB
:1010AC000033002BF0D014E0FFF7B8FC386108E0F7
:1010BC00FFF7B4FC02463B69D31A642B01D9032316
:1010CC00E6E1534B1B6803F40033002BF0D100E036
:1010DC0000BF7B681B6803F00203002B63D04C4BF2
:1010EC005B6803F00C03002B0BD0494B5B6803F0DF
:1010FC000C03082B1CD1464B5B6803F48033002B8C
:10110C0016D1434B1B6803F00203002B05D07B6800
:10111C001B69012B01D00123BAE13D4B1B6823F065
:10112C00F8027B685B69DB00394913430B603AE0DA
:10113C007B681B69002B20D0364B01221A60FFF70D
:10114C006DFC386108E0FFF769FC02463B69D31A75
:10115C00022B01D903239BE12D4B1B6803F00203E7
:10116C00002BF0D02A4B1B6823F0F8027B685B69DC
:10117C00DB00274913430B6015E0264B00221A6055
:10118C00FFF74CFC386108E0FFF748FC02463B696E
:10119C00D31A022B01D903237AE11D4B1B6803F0F0
:1011AC000203002BF0D17B681B6803F00803002BB3
:1011BC003AD07B689B69002B19D0174B01221A601F
:1011CC00FFF72CFC386108E0FFF728FC02463B696E
:1011DC00D31A022B01D903235AE10D4B5B6A03F09E
:1011EC000203002BF0D0012000F0CCFA1CE00A4BDB
:1011FC0000221A60FFF712FC38610FE0FFF70EFCBB
:10120C0002463B69D31A022B08D9032340E100BFE5
:10121C000010024000004242800442429E4B5B6A36
:10122C0003F00203002BE9D17B681B6803F0040375
:10123C00002B00F0A6800023FB75974BDB6903F0B5
:10124C008053002B0DD1944BDB69934A43F08053B0
:10125C00D361914BDB6903F08053BB60BB68012306
:10126C00FB758E4B1B6803F48073002B18D18B4BD2
:10127C001B688A4A43F480731360FFF7CFFB386115
:10128C0008E0FFF7CBFB02463B69D31A642B01D96C
:10129C000323FDE0814B1B6803F48073002BF0D01B
:1012AC007B68DB68012B06D17B4B1B6A7A4A43F0C7
:1012BC00010313622DE07B68DB68002B0CD1764BAD
:1012CC001B6A754A23F001031362734B1B6A724A43
:1012DC0023F0040313621CE07B68DB68052B0CD144
:1012EC006D4B1B6A6C4A43F0040313626A4B1B6A16
:1012FC00694A43F0010313620BE0674B1B6A664AB1
:10130C0023F001031362644B1B6A634A23F004034A
:10131C0013627B68DB68002B15D0FFF77FFB38610D
:10132C000AE0FFF77BFB02463B69D31A41F2883295
:10133C00934201D90323ABE0574B1B6A03F0020322
:10134C00002BEED014E0FFF769FB38610AE0FFF7E1
:10135C0065FB02463B69D31A41F28832934201D9AC
:10136C00032395E04C4B1B6A03F00203002BEED1D8
:10137C00FB7D012B05D1484BDB69474A23F0805399
:10138C00D3617B68DB69002B00F08180424B5B688A
:10139C0003F00C03082B61D07B68DB69022B46D170
:1013AC003F4B00221A60FFF739FB386108E0FFF76A
:1013BC0035FB02463B69D31A022B01D9032367E0A4
:1013CC00354B1B6803F00073002BF0D17B681B6A54
:1013DC00B3F5803F08D1304B5B6823F400327B6857
:1013EC009B682D4913434B602B4B5B6823F47412A1
:1013FC007B68196A7B685B6A0B43274913434B6014
:10140C00274B01221A60FFF709FB386108E0FFF750
:10141C0005FB02463B69D31A022B01D9032337E0A3
:10142C001D4B1B6803F00073002BF0D02FE01C4BFE
:10143C0000221A60FFF7F2FA386108E0FFF7EEFAC3
:10144C0002463B69D31A022B01D9032320E0124B2D
:10145C001B6803F00073002BF0D118E07B68DB698C
:10146C00012B01D1012313E00B4B5B68FB60FB6884
:10147C0003F480327B681B6A9A4206D1FB6803F442
:10148C0070127B685B6A9A4201D0012300E0002352
:10149C0018461837BD4680BD001002400070004051
:1014AC006000424280B584B000AF786039607B68E0
:1014BC00002B01D10123D0E06A4B1B6803F007031A
:1014CC003A689A4210D9674B1B6823F007026549AA
:1014DC003B6813430B60634B1B6803F007033A68CC
:1014EC009A4201D00123B8E07B681B6803F0020329
:1014FC00002B20D07B681B6803F00403002B05D065
:10150C00594B5B68584A43F4E06353607B681B6833
:10151C0003F00803002B05D0534B5B68524A43F48D
:10152C0060535360504B5B6823F0F0027B689B6800
:10153C004D4913434B607B681B6803F00103002B80
:10154C0040D07B685B68012B07D1474B1B6803F4C9
:10155C000033002B15D101237FE07B685B68022BE5
:10156C0007D1414B1B6803F00073002B09D10123F9
:10157C0073E03D4B1B6803F00203002B01D10123E8
:10158C006BE0394B5B6823F003027B685B68364980
:10159C0013434B60FFF742FAF8600AE0FFF73EFA9C
:1015AC000246FB68D31A41F28832934201D90323D5
:1015BC0053E02D4B5B6803F00C027B685B689B006F
:1015CC009A42EBD1274B1B6803F007033A689A4207
:1015DC0010D2244B1B6823F0070222493B681343AB
:1015EC000B60204B1B6803F007033A689A4201D04A
:1015FC00012332E07B681B6803F00403002B08D046
:10160C00194B5B6823F4E0627B68DB681649134373
:10161C004B607B681B6803F00803002B09D0124B4E
:10162C005B6823F460527B681B69DB000E49134333
:10163C004B6000F021F802460B4B5B681B0903F072
:10164C000F030A49CB5C22FA03F3094A1360094BD6
:10165C001B681846FFF7A0F9002318461037BD4643
:10166C0080BD00BF0020024000100240142D000875
:10167C00000000200400002080B487B000AF0023DD
:10168C00FB600023BB6000237B6100237B60002395
:10169C003B611E4B5B68FB60FB6803F00C03042B87
:1016AC0002D0082B03D027E0194B3B6127E0FB68E5
:1016BC009B0C03F00F03174AD35C7B60FB6803F4AD
:1016CC008033002B10D0114B5B685B0C03F00103D3
:1016DC00114AD35CBB607B680D4A02FB03F2BB680A
:1016EC00B2FBF3F37B6104E07B680C4A02FB03F36F
:1016FC007B617B693B6102E0054B3B6100BF3B6951
:10170C0018461C37BD4680BC704700BF0010024015
:10171C0000127A002C2D00083C2D000800093D0019
:10172C0080B400AF024B1B681846BD4680BC7047A6
:10173C000000002080B500AFFFF7F2FF0246054B1A
:10174C005B681B0A03F007030349CB5C22FA03F323
:10175C00184680BD00100240242D000880B500AF53
:10176C00FFF7DEFF0246054B5B68DB0A03F007035D
:10177C000349CB5C22FA03F3184680BD00100240EB
:10178C00242D000880B485B000AF78600A4B1B682C
:10179C000A4AA2FB03235B0A7A6802FB03F3FB6091
:1017AC0000BFFB685A1EFA60002BF9D100BF00BFC6
:1017BC001437BD4680BC704700000020D34D62102A
:1017CC0080B582B000AF78607B68002B01D101231B
:1017DC0041E07B6893F83D30DBB2002B06D17B688F
:1017EC00002283F83C207868FEF750FF7B680222C9
:1017FC0083F83D207B681A687B68043319461046D1
:10180C0000F056FA7B68012283F846207B6801229F
:10181C0083F83E207B68012283F83F207B680122FD
:10182C0083F840207B68012283F841207B680122E9
:10183C0083F842207B68012283F843207B680122D5
:10184C0083F844207B68012283F845207B680122C1
:10185C0083F83D20002318460837BD4680BD0000A4
:10186C0080B485B000AF78607B6893F83D30DBB214
:10187C00012B01D0012335E07B68022283F83D2047
:10188C007B681B68DA687B681B6842F00102DA60CF
:10189C007B681B68164A934209D07B681B68B3F1BE
:1018AC00804F04D07B681B68124A934211D17B682D
:1018BC001B689B6803F00703FB60FB68062B10D0CA
:1018CC007B681B681A687B681B6842F001021A600F
:1018DC0007E07B681B681A687B681B6842F0010292
:1018EC001A60002318461437BD4680BC704700BFF1
:1018FC00002C01400004004080B584B000AF78603B
:10190C007B681B68DB68FB607B681B681B69BB60C2
:10191C00BB6803F00203002B20D0FB6803F002032A
:10192C00002B1BD07B681B686FF002021A617B686E
:10193C0001221A777B681B689B6903F00303002B59
:10194C0003D0786800F098F905E0786800F08BF91E
:10195C00786800F09AF97B6800221A77BB6803F06C
:10196C000403002B20D0FB6803F00403002B1BD0D6
:10197C007B681B686FF004021A617B6802221A777D
:10198C007B681B689B6903F44073002B03D0786859
:10199C0000F072F905E0786800F065F9786800F0FD
:1019AC0074F97B6800221A77BB6803F00803002BDC
:1019BC0020D0FB6803F00803002B1BD07B681B684E
:1019CC006FF008021A617B6804221A777B681B6827
:1019DC00DB6903F00303002B03D0786800F04CF9AB
:1019EC0005E0786800F03FF9786800F04EF97B6804
:1019FC0000221A77BB6803F01003002B20D0FB6881
:101A0C0003F01003002B1BD07B681B686FF01002D7
:101A1C001A617B6808221A777B681B68DB6903F400
:101A2C004073002B03D0786800F026F905E0786845
:101A3C0000F019F9786800F028F97B6800221A7711
:101A4C00BB6803F00103002B0CD0FB6803F001030F
:101A5C00002B07D07B681B686FF001021A61786855
:101A6C00FEF784FCBB6803F08003002B0CD0FB68F2
:101A7C0003F08003002B07D07B681B686FF080029B
:101A8C001A61786800F06FFABB6803F04003002B12
:101A9C000CD0FB6803F04003002B07D07B681B685D
:101AAC006FF040021A61786800F0F8F8BB6803F038
:101ABC002003002B0CD0FB6803F02003002B07D075
:101ACC007B681B686FF020021A61786800F042FA9C
:101ADC0000BF1037BD4680BD80B584B000AF7860C4
:101AEC0039600023FB737B6893F83C30012B01D1E8
:101AFC000223B4E07B68012283F83C207B6802223D
:101B0C0083F83D207B681B689B68BB60BB6823F037
:101B1C007703BB60BB6823F47F43BB607B681B68A7
:101B2C00BA689A603B681B68B3F5005F3ED0B3F5AA
:101B3C00005F00F28780B3F5805F00F08680B3F51C
:101B4C00805F7FD8702B1AD0702B7BD8602B50D035
:101B5C00602B77D8502B3CD0502B73D8402B58D0BF
:101B6C00402B6FD8302B64D0302B6BD8202B60D00F
:101B7C00202B67D8002B5CD0102B5AD062E07B68EE
:101B8C0018683B6899683B685A683B68DB6800F0EA
:101B9C006AF97B681B689B68BB60BB6843F0770382
:101BAC00BB607B681B68BA689A604FE07B681868FA
:101BBC003B6899683B685A683B68DB6800F053F9EE
:101BCC007B681B689A687B681B6842F480429A6049
:101BDC003CE07B6818683B6859683B68DB681A46D0
:101BEC0000F0CAF87B681B685021184600F021F9F8
:101BFC002CE07B6818683B6859683B68DB681A46C0
:101C0C0000F0E8F87B681B686021184600F011F9B9
:101C1C001CE07B6818683B6859683B68DB681A46AF
:101C2C0000F0AAF87B681B684021184600F001F907
:101C3C000CE07B681A683B681B681946104600F07C
:101C4C00F8F803E00123FB7300E000BF7B6801227E
:101C5C0083F83D207B68002283F83C20FB7B1846F0
:101C6C001037BD4680BD80B483B000AF786000BF34
:101C7C000C37BD4680BC704780B483B000AF786031
:101C8C0000BF0C37BD4680BC704780B483B000AF3A
:101C9C00786000BF0C37BD4680BC704780B483B001
:101CAC0000AF786000BF0C37BD4680BC70470000A9
:101CBC0080B485B000AF786039607B681B68FB60CE
:101CCC007B682B4A934207D07B68B3F1804F03D0DB
:101CDC007B68284A934208D1FB6823F07003FB60B1
:101CEC003B685B68FA681343FB607B68204A93424D
:101CFC0007D07B68B3F1804F03D07B681D4A9342B9
:101D0C0008D1FB6823F44073FB603B68DB68FA681E
:101D1C001343FB60FB6823F080023B685B69134351
:101D2C00FB607B68FA681A603B689A687B68DA62C9
:101D3C003B681A687B689A627B680D4A934203D1B0
:101D4C003B681A697B681A637B6801225A617B685D
:101D5C001B6903F00103002B05D07B681B6923F082
:101D6C0001027B681A6100BF1437BD4680BC704706
:101D7C00002C01400004004080B487B000AFF86034
:101D8C00B9607A60FB681B6A7B61FB681B6A23F095
:101D9C000102FB681A62FB689B693B613B6923F09B
:101DAC00F0033B617B681B013A6913433B617B6920
:101DBC0023F00A037B617A69BB6813437B61FB6880
:101DCC003A699A61FB687A691A6200BF1C37BD4692
:101DDC0080BC704780B487B000AFF860B9607A609F
:101DEC00FB681B6A7B61FB681B6A23F01002FB68B3
:101DFC001A62FB689B693B613B6923F470433B614E
:101E0C007B681B033A6913433B617B6923F0A00396
:101E1C007B61BB681B017A6913437B61FB683A6980
:101E2C009A61FB687A691A6200BF1C37BD4680BC98
:101E3C00704780B485B000AF786039607B689B6870
:101E4C00FB60FB6823F07003FB603A68FB6813438C
:101E5C0043F00703FB607B68FA689A6000BF143795
:101E6C00BD4680BC704780B487B000AFF860B960E5
:101E7C007A603B60FB689B687B617B6923F47F43E2
:101E8C007B613B681A027B681A43BB6813437A690F
:101E9C0013437B61FB687A699A6000BF1C37BD46AF
:101EAC0080BC704780B485B000AF786039607B68C7
:101EBC0093F83C30012B01D1022341E07B680122D5
:101ECC0083F83C207B68022283F83D207B681B68EA
:101EDC005B68FB607B681B689B68BB60FB6823F0DE
:101EEC007003FB603B681B68FA681343FB607B68FC
:101EFC001B68FA685A607B681B68144A934209D0C5
:101F0C007B681B68B3F1804F04D07B681B68104A58
:101F1C0093420CD1BB6823F08003BB603B685B68C9
:101F2C00BA681343BB607B681B68BA689A607B68AD
:101F3C00012283F83D207B68002283F83C2000239B
:101F4C0018461437BD4680BC704700BF002C0140BA
:101F5C000004004080B483B000AF786000BF0C3741
:101F6C00BD4680BC704780B483B000AF786000BFC2
:101F7C000C37BD4680BC704780B582B000AF78602E
:101F8C007B68002B01D1012342E07B6893F8413040
:101F9C00DBB2002B06D17B68002283F840207868E6
:101FAC00FEF798FB7B68242283F841207B681B6832
:101FBC00DA687B681B6822F40052DA60786800F0FB
:101FCC0071F97B681B681A697B681B6822F4904264
:101FDC001A617B681B685A697B681B6822F02A02AD
:101FEC005A617B681B68DA687B681B6842F4005294
:101FFC00DA607B6800225A647B68202283F84120D7
:10200C007B68202283F842207B6800225A630023DD
:10201C0018460837BD4680BD80B58AB002AFF8605F
:10202C00B9603B601346FB8000237B61FB6893F82F
:10203C004130DBB2202B75D1BB68002B02D0FB8862
:10204C00002B01D101236EE0FB6800225A64FB686F
:10205C00212283F84120FEF7E1FC7861FB68FA88C5
:10206C009A84FB68FA88DA84FB689B68B3F5805F16
:10207C0008D1FB681B69002B04D10023FB61BB68F2
:10208C00BB6103E0BB68FB610023BB612EE03B68D6
:10209C0000937B6900228021F86800F048F8034621
:1020AC00002B05D0FB68202283F8412003233AE063
:1020BC00FB69002B0BD1BB691B881A46FB681B689C
:1020CC00C2F308025A60BB690233BB6107E0FB69CB
:1020DC001A78FB681B685A60FB690133FB61FB686B
:1020EC00DB8C9BB2013B9AB2FB68DA84FB68DB8C1D
:1020FC009BB2002BCBD13B6800937B690022402123
:10210C00F86800F014F80346002B05D0FB68202279
:10211C0083F84120032306E0FB68202283F841204A
:10212C00002300E0022318462037BD4680BD80B551
:10213C0086B000AFF860B9603B601346FB713BE0C2
:10214C003B6AB3F1FF3F37D0FEF768FC02463B68B1
:10215C00D31A3A6A9A4202D33B6A002B01D1032369
:10216C003AE0FB681B68DB6803F00403002B23D008
:10217C00BB68802B20D0BB68402B1DD0FB681B6834
:10218C001B6803F00803082B16D100237B61FB6846
:10219C001B681B687B61FB681B685B687B617B69E8
:1021AC00F86800F01DF8FB6808225A64FB680022EE
:1021BC0083F8402001230FE0FB681B681A68BB689A
:1021CC001340BA689A420CBF01230023DBB21A46B3
:1021DC00FB799A42B4D0002318461837BD4680BD0F
:1021EC0080B495B000AF78607B681B680C337B6360
:1021FC007B6B53E8003F3B633B6B23F49073FB64B6
:10220C007B681B680C33FA6C3A64FB63F96B3A6CB1
:10221C0041E80023BB63BB6B002BE5D17B681B68DB
:10222C0014333B623B6A53E8003FFB61FB6923F0CC
:10223C000103BB647B681B681433BA6CFA62BB6223
:10224C00B96AFA6A41E800237B627B6A002BE5D10C
:10225C007B681B6B012B19D17B681B680C33FB60F3
:10226C00FB6853E8003FBB60BB6823F010037B6442
:10227C007B681B680C337A6CBA617B617969BA69CB
:10228C0041E800233B613B69002BE5D17B682022B0
:10229C0083F842207B6800221A6300BF5437BD4686
:1022AC0080BC704780B584B000AF78607B681B68D9
:1022BC001B6923F440517B68DA687B681B680A430E
:1022CC001A617B689A687B681B691A437B685B6937
:1022DC001343BB607B681B68DB6823F4B05323F0AB
:1022EC000C037A681268B9680B43D3607B681B686F
:1022FC005B6923F440717B689A697B681B680A43AD
:10230C005A617B681B682C4A934203D1FFF726FA6B
:10231C00F86002E0FFF70EFAF860FA6813469B00CB
:10232C0013449A001A447B685B689B00B2FBF3F37E
:10233C00224AA2FB03235B091901FA6813469B008E
:10234C0013449A001A447B685B689B00B2FBF3F25F
:10235C001A4BA3FB02035B09642000FB03F3D31AA3
:10236C001B013233154AA2FB03235B0903F0F00374
:10237C001944FA6813469B0013449A001A447B686C
:10238C005B689B00B2FBF3F20C4BA3FB02035B09F3
:10239C00642000FB03F3D31A1B013233074AA2FB60
:1023AC0003235B0903F00F027B681B680A449A60E5
:1023BC0000BF1037BD4680BD003801401F85EB5172
:1023CC00014B1868704700BF0C00002070B5002648
:1023DC000C4D0D4C641BA410A64209D100F05CFC02
:1023EC0000260A4D0A4C641BA410A64205D170BDF0
:1023FC0055F8043B98470136EEE755F8043B9847EF
:10240C000136F2E7742D0008742D0008742D0008B5
:10241C00782D000803460244934200D1704703F81C
:10242C00011BF9E70EB46FF0004100B59CB01DAB79
:10243C0002900690079104910848094953F8042B1F
:10244C000591006802A9019300F068F80022029B34
:10245C001A701CB05DF804EB03B070470C00002040
:10246C000802FFFF2DE9F0478E6882469E420C461B
:10247C0090461F4638D88A8912F4906F32D025685E
:10248C0009690133A5EB010965694B4405EB450569
:10249C0005EBD5756D109D4238BF1D46530531D5E2
:1024AC00294600F053FB064650B90C234FF0FF3081
:1024BC00CAF80030A38943F04003A381BDE8F0873C
:1024CC004A46216900F0CEFAA38923F4906343F0C5
:1024DC008003A38126614E4426603E466561A5EBD0
:1024EC000905A560BE4200D93E46324641462068E9
:1024FC0000F0C6FAA36822689B1B32440020A3603C
:10250C002260DBE72A4600F07BFB06460028E1D17F
:10251C005046216900F0CEFAC7E700002DE9F04FD4
:10252C0098468B8907461B060D4614469DB00ED562
:10253C000B6963B9402100F009FB2860286120B9C0
:10254C000C233B604FF0FF30D1E040236B61002344
:10255C00099320238DF8293030234FF00109CDF851
:10256C000C80DFF8A4818DF82A3023469A4613F8A4
:10257C00012B0AB1252AF9D1BAEB040B0BD05B461F
:10258C00224629463846FFF76DFF013000F0AA803D
:10259C00099A5A4409929AF80030002B00F0A28054
:1025AC0000234FF0FF32CDE905230AF1010A049311
:1025BC0007938DF853301A935446052214F8011BD7
:1025CC00514800F041FA049AD8B9D00644BF2023F0
:1025DC008DF85330110744BF2B238DF853309AF8E4
:1025EC0000302A2B15D0544600204FF00A0C079AC5
:1025FC00214611F8013B303B092B4ED9B0B1079263
:10260C0014E0A0EB080309FA03F31343A246049366
:10261C00D2E7039B191D1B680391002BBBBF5B42C8
:10262C0042F0020207930793B8BF049223782E2B33
:10263C000CD163782A2B35D1039B02341A1D1B68ED
:10264C000392002BB8BF4FF0FF330593DFF8C8A0FF
:10265C0003225046217800F0F7F940B14023A0EB5B
:10266C000A0003FA00F0049B01340343049314F8AA
:10267C00011B062225488DF8281000F0E5F90028EA
:10268C0038D0234B1BBB039B073323F007030833C2
:10269C000393099B3344099367E70C4601200CFB19
:1026AC000232A5E700234FF00A0C194601340593BA
:1026BC00204610F8012B303A092A03D9002BC5D03B
:1026CC000591C3E7044601230CFB0121F0E703ABA2
:1026DC0000932A4638460F4B04A9AFF30080421CE6
:1026EC000646D6D1AB895B063FF52CAF09981DB0D9
:1026FC00BDE8F08F03AB00932A463846054B04A97E
:10270C0000F07CF8EBE700BF3E2D0008482D0008D8
:10271C000000000071240008442D00082DE9F0474A
:10272C00164699468A680B6907469342B8BF13460A
:10273C00336091F843200C46DDF820800AB1013358
:10274C0033602368990642BF3368023333602568CF
:10275C0015F0060506D104F1190AE36832689B1AD4
:10276C00AB4228DC94F84320131E226818BF0123C7
:10277C0092062DD44946384604F14302C047013035
:10278C0020D02368E56803F00603042B18BF00254E
:10279C0032684FF00006A36808BFAD1A226908BF63
:1027AC0025EAE5759342C4BF9B1AED181A34B5425D
:1027BC001AD1002008E00123524649463846C0474A
:1027CC00013003D14FF0FF30BDE8F0870135C4E78D
:1027DC003020E11881F843005A1C94F8451022442B
:1027EC00023382F84310C5E7012322464946384696
:1027FC00C0470130E6D00136D9E700002DE9FF478C
:10280C000C46277E9146782F80469A460C9904F107
:10281C00430207D8622F0AD8002F00F0D980582F16
:10282C0000F0A48004F1420684F842703AE0A7F16B
:10283C006303152BF6D801A050F823F0A12800084B
:10284C00B528000831280008312800083128000874
:10285C0031280008B5280008312800083128000864
:10286C003128000831280008C3290008E528000891
:10287C00A52900083128000831280008E52900089E
:10288C0031280008E5280008312800083128000804
:10289C00AD2900080B6804F142061A1D1B680A607A
:1028AC0084F842300123A4E0256808682E0600F164
:1028BC0004030AD505680B60002D03DA2D236D4245
:1028CC0084F843300A235E4819E015F0400F056880
:1028DC000B6018BF2DB2EFE70B682568181D086058
:1028EC00280601D51D6802E06906FBD51D886F2FEF
:1028FC000CBF08230A235248002184F84310666851
:10290C00002EA8BF2168A660A4BF21F0040121609D
:10291C000DB9002E4DD01646B5FBF3F103FB115744
:10292C00C75D06F8017D2F46BB420D46F4D9082B36
:10293C000BD12368DF0708D5236961689942DEBF94
:10294C00302306F8013C06F1FF36921B22614B4600
:10295C0021464046CDF800A003AAFFF7DFFE013068
:10296C004CD14FF0FF3004B0BDE8F087344884F808
:10297C0045700E68236856F8045B1F060E6014D56C
:10298C00D90744BF43F0200323601DB9236823F00B
:10299C00200323601023AFE7236843F02003236058
:1029AC007823284884F84530E3E75E0648BFADB28B
:1029BC00E6E71646BBE70B6826681D1D60690D60CF
:1029CC0035061B6801D5186002E07106FBD518802E
:1029DC00002316462361BAE70B681A1D0A601E68AD
:1029EC0000213046626800F02FF808B1801B60604F
:1029FC0063682361002384F84330A8E732464946D4
:102A0C0040462369D0470130ABD023689B0713D4D1
:102A1C00E068039B9842B8BF1846A4E701233246EE
:102A2C0049464046D04701309BD00135E3680399B5
:102A3C005B1AAB42F2DCEBE7002504F11906F5E773
:102A4C004F2D0008602D0008034610B5C9B2024492
:102A5C009342184601D1002003E0047801338C42E4
:102A6C00F6D110BD0A44914200F1FF3300D17047FA
:102A7C0010B511F8014B914203F8014FF9D110BD7B
:102A8C00884210B501EB020402D98442234607D8D0
:102A9C00431EA14208D011F8012B03F8012FF8E7CF
:102AAC00014602448A4200D110BD13F8014D02F8D0
:102ABC00014DF7E738B50546002943D051F8043CE1
:102ACC000C1F002BB8BFE41800F0D0F81E4A136896
:102ADC00104633B9636014602846BDE8384000F0F6
:102AEC00CBB8A3420AD921686218934201BF1A6875
:102AFC005B685218226063600460EDE71A465B68FD
:102B0C000BB1A342FAD911685018A0420BD120681E
:102B1C000144501883421160DED118685B6801448F
:102B2C0011605360D8E702D90C232B60D4E72068DE
:102B3C0021188B4201BF19685B680918216063601A
:102B4C005460C9E738BD00BF90000020F8B5CD1C1B
:102B5C0025F0030508350C2D38BF0C25002D064635
:102B6C0001DBA94203D90C2333600020F8BD00F02F
:102B7C007DF821490A6814469CB9204F3B6823B95B
:102B8C002146304600F062F838602946304600F0A5
:102B9C005DF8431C23D10C233046336000F06CF8F5
:102BAC00E3E723685B1B17D40B2B03D923601C446E
:102BBC00256004E06368A2420CBF0B605360304692
:102BCC0000F05AF804F10B00231D20F00700C21A84
:102BDC00CCD01B1AA350C9E722466468CCE7C41CAE
:102BEC0024F00304A042E3D0211A304600F02EF862
:102BFC000130DDD1CFE700BF900000209400002011
:102C0C00F8B5074614460E4621B91146BDE8F84002
:102C1C00FFF79CBF22B9FFF74DFF25462846F8BDAC
:102C2C0000F030F8A0420FD221463846FFF78EFF55
:102C3C0005460028F2D031462246FFF713FF3146F5
:102C4C003846FFF737FFE9E73546E7E738B50023A5
:102C5C00054D044608462B60FDF7C8FD431C02D108
:102C6C002B6803B1236038BD54040020014800F0E8
:102C7C0011B800BF5C040020014800F00CB800BF84
:102C8C005C04002051F8043C181F002BBCBF0B58EF
:102C9C00C018704770477047F8B500BFF8BC08BC47
:102CAC009E467047F8B500BFF8BC08BC9E467047FE
:102CBC005461736B2031206861732073746172747A
:102CCC0065642061743A202564200D0A0000000020
:102CDC00436F756E7465722076616C75653A20254C
:102CEC0064200D0A000000005461736B20322068D0
:102CFC00617320737461727465642061743A202569
:102D0C0064200D0A0000000000000000000000001C
:102D1C000102030406070809000000000102030475
:102D2C0002030405060708090A0B0C0D0E0F101000
:102D3C000102232D302B2000686C4C006566674522
:102D4C004647003031323334353637383941424317
:102D5C0044454600303132333435363738396162C8
:082D6C006364656600000000CD
:042D74003101000821
:042D78000D01000841
:102D7C0000127A001000000001000000100000207A
:102D8C000000000000000000000000000000000037
:102D9C000000000000000000000000000000000027
:102DAC000000000000000000000000000000000017
:102DBC000000000000000000000000000000000007
:102DCC0000000000000000000000000000000000F7
:102DDC0000000000000000000000000000000000E7
:040000050800092DB9
:00000001FF
